{
  "transactions": [
    {
      "hash": "0x1c6e6154b58c4d57acf9e332a1c377f84af7a87cc0ece73e761aa8a479680a5f",
      "transactionType": "CALL",
      "contractName": "Utils",
      "contractAddress": "0x2FB5322CB7B9A39A650AC84b65cEEEcb710Cb136",
      "function": "setChainSelectorToContractAddress(uint64,address)",
      "arguments": [
        "14767482510784806043",
        "0xAc8f976CE33462A9fD530977818897323C141503"
      ],
      "transaction": {
        "type": "0x02",
        "from": "0x0de82dcc40b8468639251b089f8b4a4400022e04",
        "to": "0x2fb5322cb7b9a39a650ac84b65ceeecb710cb136",
        "gas": "0xfb99",
        "value": "0x0",
        "data": "0x32fa930b000000000000000000000000000000000000000000000000ccf0a31a221f3c9b000000000000000000000000ac8f976ce33462a9fd530977818897323c141503",
        "nonce": "0x94",
        "accessList": []
      },
      "additionalContracts": [],
      "isFixedGasLimit": false
    },
    {
      "hash": "0xba6ef08ce1334f61e1c9e3f7d035e441fc6e4f833a541192abb395ed979b33a6",
      "transactionType": "CALL",
      "contractName": "Utils",
      "contractAddress": "0x2FB5322CB7B9A39A650AC84b65cEEEcb710Cb136",
      "function": "setChainIdToChainSelector(uint64,uint64)",
      "arguments": [
        "43113",
        "14767482510784806043"
      ],
      "transaction": {
        "type": "0x02",
        "from": "0x0de82dcc40b8468639251b089f8b4a4400022e04",
        "to": "0x2fb5322cb7b9a39a650ac84b65ceeecb710cb136",
        "gas": "0x1093b",
        "value": "0x0",
        "data": "0x332d7bcf000000000000000000000000000000000000000000000000000000000000a869000000000000000000000000000000000000000000000000ccf0a31a221f3c9b",
        "nonce": "0x95",
        "accessList": []
      },
      "additionalContracts": [],
      "isFixedGasLimit": false
    }
  ],
  "receipts": [
    {
      "transactionHash": "0x1c6e6154b58c4d57acf9e332a1c377f84af7a87cc0ece73e761aa8a479680a5f",
      "transactionIndex": "0x1c",
      "blockHash": "0x63febd1f8cd55a5f6ffee183fab1d1b2621b266d02e3c663de7e9dfd78e20c49",
      "blockNumber": "0x5024ba",
      "from": "0x0de82DCC40B8468639251b089f8b4A4400022e04",
      "to": "0x2FB5322CB7B9A39A650AC84b65cEEEcb710Cb136",
      "cumulativeGasUsed": "0x18a392",
      "gasUsed": "0xb628",
      "contractAddress": null,
      "logs": [],
      "status": "0x1",
      "logsBloom": "0x00000000000000000000000000000000000000000000000000000000000000000000000000000000000000000000000000000000000000000000000000000000000000000000000000000000000000000000000000000000000000000000000000000000000000000000000000000000000000000000000000000000000000000000000000000000000000000000000000000000000000000000000000000000000000000000000000000000000000000000000000000000000000000000000000000000000000000000000000000000000000000000000000000000000000000000000000000000000000000000000000000000000000000000000000000000",
      "type": "0x2",
      "effectiveGasPrice": "0x1de77f6e7"
    },
    {
      "transactionHash": "0xba6ef08ce1334f61e1c9e3f7d035e441fc6e4f833a541192abb395ed979b33a6",
      "transactionIndex": "0x26",
      "blockHash": "0xb2a4ddb367a01d774a69aa69c3beff2f6dff1c09341fbec2d5b73393635201d3",
      "blockNumber": "0x5024bb",
      "from": "0x0de82DCC40B8468639251b089f8b4A4400022e04",
      "to": "0x2FB5322CB7B9A39A650AC84b65cEEEcb710Cb136",
      "cumulativeGasUsed": "0x12474b",
      "gasUsed": "0xb55b",
      "contractAddress": null,
      "logs": [],
      "status": "0x1",
      "logsBloom": "0x00000000000000000000000000000000000000000000000000000000000000000000000000000000000000000000000000000000000000000000000000000000000000000000000000000000000000000000000000000000000000000000000000000000000000000000000000000000000000000000000000000000000000000000000000000000000000000000000000000000000000000000000000000000000000000000000000000000000000000000000000000000000000000000000000000000000000000000000000000000000000000000000000000000000000000000000000000000000000000000000000000000000000000000000000000000",
      "type": "0x2",
      "effectiveGasPrice": "0x1d6fdd226"
    }
  ],
  "libraries": [],
  "pending": [],
  "returns": {},
  "timestamp": 1707488993,
  "chain": 11155111,
  "multi": false,
  "commit": "f215a1c"
}