{
  "transactions": [
    {
      "hash": "0x422fe268b8106e90fe8ad970c81d9633cb9fce01eab0aee9671ace31d283c983",
      "transactionType": "CALL",
      "contractName": "Utils",
      "contractAddress": "0xAc8f976CE33462A9fD530977818897323C141503",
      "function": "setChainSelectorToContractAddress(uint64,address)",
      "arguments": [
        "16015286601757825753",
        "0x2FB5322CB7B9A39A650AC84b65cEEEcb710Cb136"
      ],
      "transaction": {
        "type": "0x02",
        "from": "0x0de82dcc40b8468639251b089f8b4a4400022e04",
        "to": "0xac8f976ce33462a9fd530977818897323c141503",
        "gas": "0x903a",
        "value": "0x0",
        "data": "0x32fa930b000000000000000000000000000000000000000000000000de41ba4fc9d91ad90000000000000000000000002fb5322cb7b9a39a650ac84b65ceeecb710cb136",
        "nonce": "0x27",
        "accessList": []
      },
      "additionalContracts": [],
      "isFixedGasLimit": false
    },
    {
      "hash": "0xe74ec4184f720658f2e323b265234ca1403b880d9b7b6d616190a60f4a41452e",
      "transactionType": "CALL",
      "contractName": "Utils",
      "contractAddress": "0xAc8f976CE33462A9fD530977818897323C141503",
      "function": "setChainIdToChainSelector(uint64,uint64)",
      "arguments": [
        "11155111",
        "16015286601757825753"
      ],
      "transaction": {
        "type": "0x02",
        "from": "0x0de82dcc40b8468639251b089f8b4a4400022e04",
        "to": "0xac8f976ce33462a9fd530977818897323c141503",
        "gas": "0x979c",
        "value": "0x0",
        "data": "0x332d7bcf0000000000000000000000000000000000000000000000000000000000aa36a7000000000000000000000000000000000000000000000000de41ba4fc9d91ad9",
        "nonce": "0x28",
        "accessList": []
      },
      "additionalContracts": [],
      "isFixedGasLimit": false
    }
  ],
  "receipts": [
    {
      "transactionHash": "0x422fe268b8106e90fe8ad970c81d9633cb9fce01eab0aee9671ace31d283c983",
      "transactionIndex": "0x0",
      "blockHash": "0xc3f082f50c273246d754cf69c4c3da09de76c3c78f29440a56b79365380bb9cd",
      "blockNumber": "0x1c76ce8",
      "from": "0x0de82DCC40B8468639251b089f8b4A4400022e04",
      "to": "0xAc8f976CE33462A9fD530977818897323C141503",
      "cumulativeGasUsed": "0x686c",
      "gasUsed": "0x686c",
      "contractAddress": null,
      "logs": [],
      "status": "0x1",
      "logsBloom": "0x00000000000000000000000000000000000000000000000000000000000000000000000000000000000000000000000000000000000000000000000000000000000000000000000000000000000000000000000000000000000000000000000000000000000000000000000000000000000000000000000000000000000000000000000000000000000000000000000000000000000000000000000000000000000000000000000000000000000000000000000000000000000000000000000000000000000000000000000000000000000000000000000000000000000000000000000000000000000000000000000000000000000000000000000000000000",
      "type": "0x2",
      "effectiveGasPrice": "0x684ee1800"
    },
    {
      "transactionHash": "0xe74ec4184f720658f2e323b265234ca1403b880d9b7b6d616190a60f4a41452e",
      "transactionIndex": "0x1",
      "blockHash": "0xa601ef15d44986db3219f852902f42dd7d954c9b3b8131f0254a32cc91e2322b",
      "blockNumber": "0x1c76cec",
      "from": "0x0de82DCC40B8468639251b089f8b4A4400022e04",
      "to": "0xAc8f976CE33462A9fD530977818897323C141503",
      "cumulativeGasUsed": "0x1d167",
      "gasUsed": "0x67ab",
      "contractAddress": null,
      "logs": [],
      "status": "0x1",
      "logsBloom": "0x00000000000000000000000000000000000000000000000000000000000000000000000000000000000000000000000000000000000000000000000000000000000000000000000000000000000000000000000000000000000000000000000000000000000000000000000000000000000000000000000000000000000000000000000000000000000000000000000000000000000000000000000000000000000000000000000000000000000000000000000000000000000000000000000000000000000000000000000000000000000000000000000000000000000000000000000000000000000000000000000000000000000000000000000000000000",
      "type": "0x2",
      "effectiveGasPrice": "0x684ee1800"
    }
  ],
  "libraries": [],
  "pending": [],
  "returns": {},
  "timestamp": 1707488910,
  "chain": 43113,
  "multi": false,
  "commit": "f215a1c"
}